{
  "contractName": "DiscussionApp",
  "abi": [
    {
      "constant": true,
      "inputs": [],
      "name": "EMPTY_ROLE",
      "outputs": [
        {
          "name": "",
          "type": "bytes32"
        }
      ],
      "payable": false,
      "stateMutability": "view",
      "type": "function"
    },
    {
      "constant": true,
      "inputs": [],
      "name": "hasInitialized",
      "outputs": [
        {
          "name": "",
          "type": "bool"
        }
      ],
      "payable": false,
      "stateMutability": "view",
      "type": "function"
    },
    {
      "constant": true,
      "inputs": [
        {
          "name": "_script",
          "type": "bytes"
        }
      ],
      "name": "getEVMScriptExecutor",
      "outputs": [
        {
          "name": "",
          "type": "address"
        }
      ],
      "payable": false,
      "stateMutability": "view",
      "type": "function"
    },
    {
      "constant": true,
      "inputs": [],
      "name": "getRecoveryVault",
      "outputs": [
        {
          "name": "",
          "type": "address"
        }
      ],
      "payable": false,
      "stateMutability": "view",
      "type": "function"
    },
    {
      "constant": true,
      "inputs": [],
      "name": "REGISTER_ROLE",
      "outputs": [
        {
          "name": "",
          "type": "bytes32"
        }
      ],
      "payable": false,
      "stateMutability": "view",
      "type": "function"
    },
    {
      "constant": true,
      "inputs": [],
      "name": "MODERATOR_ROLE",
      "outputs": [
        {
          "name": "",
          "type": "bytes32"
        }
      ],
      "payable": false,
      "stateMutability": "view",
      "type": "function"
    },
    {
      "constant": true,
      "inputs": [
        {
          "name": "token",
          "type": "address"
        }
      ],
      "name": "allowRecoverability",
      "outputs": [
        {
          "name": "",
          "type": "bool"
        }
      ],
      "payable": false,
      "stateMutability": "view",
      "type": "function"
    },
    {
      "constant": true,
      "inputs": [],
      "name": "appId",
      "outputs": [
        {
          "name": "",
          "type": "bytes32"
        }
      ],
      "payable": false,
      "stateMutability": "view",
      "type": "function"
    },
    {
      "constant": true,
      "inputs": [],
      "name": "getInitializationBlock",
      "outputs": [
        {
          "name": "",
          "type": "uint256"
        }
      ],
      "payable": false,
      "stateMutability": "view",
      "type": "function"
    },
    {
      "constant": false,
      "inputs": [
        {
          "name": "_token",
          "type": "address"
        }
      ],
      "name": "transferToVault",
      "outputs": [],
      "payable": false,
      "stateMutability": "nonpayable",
      "type": "function"
    },
    {
      "constant": true,
      "inputs": [
        {
          "name": "_sender",
          "type": "address"
        },
        {
          "name": "_role",
          "type": "bytes32"
        },
        {
          "name": "_params",
          "type": "uint256[]"
        }
      ],
      "name": "canPerform",
      "outputs": [
        {
          "name": "",
          "type": "bool"
        }
      ],
      "payable": false,
      "stateMutability": "view",
      "type": "function"
    },
    {
      "constant": true,
      "inputs": [],
      "name": "getEVMScriptRegistry",
      "outputs": [
        {
          "name": "",
          "type": "address"
        }
      ],
      "payable": false,
      "stateMutability": "view",
      "type": "function"
    },
    {
      "constant": true,
      "inputs": [
        {
          "name": "",
          "type": "uint256"
        },
        {
          "name": "",
          "type": "uint256"
        }
      ],
      "name": "discussionThreadPosts",
      "outputs": [
        {
          "name": "author",
          "type": "address"
        },
        {
          "name": "postCid",
          "type": "string"
        },
        {
          "name": "discussionThreadId",
          "type": "uint256"
        },
        {
          "name": "id",
          "type": "uint256"
        },
        {
          "name": "createdAt",
          "type": "uint256"
        },
        {
          "name": "show",
          "type": "bool"
        }
      ],
      "payable": false,
      "stateMutability": "view",
      "type": "function"
    },
    {
      "constant": true,
      "inputs": [],
      "name": "kernel",
      "outputs": [
        {
          "name": "",
          "type": "address"
        }
      ],
      "payable": false,
      "stateMutability": "view",
      "type": "function"
    },
    {
      "constant": true,
      "inputs": [],
      "name": "isPetrified",
      "outputs": [
        {
          "name": "",
          "type": "bool"
        }
      ],
      "payable": false,
      "stateMutability": "view",
      "type": "function"
    },
    {
      "anonymous": false,
      "inputs": [
        {
          "indexed": true,
          "name": "author",
          "type": "address"
        },
        {
          "indexed": false,
          "name": "postCid",
          "type": "string"
        },
        {
          "indexed": false,
          "name": "discussionThreadId",
          "type": "uint256"
        },
        {
          "indexed": false,
          "name": "postId",
          "type": "uint256"
        },
        {
          "indexed": false,
          "name": "createdAt",
          "type": "uint256"
        }
      ],
      "name": "Post",
      "type": "event"
    },
    {
      "anonymous": false,
      "inputs": [
        {
          "indexed": true,
          "name": "author",
          "type": "address"
        },
        {
          "indexed": false,
          "name": "revisedPostCid",
          "type": "string"
        },
        {
          "indexed": false,
          "name": "discussionThreadId",
          "type": "uint256"
        },
        {
          "indexed": false,
          "name": "postId",
          "type": "uint256"
        },
        {
          "indexed": false,
          "name": "createdAt",
          "type": "uint256"
        },
        {
          "indexed": false,
          "name": "revisedAt",
          "type": "uint256"
        }
      ],
      "name": "Revise",
      "type": "event"
    },
    {
      "anonymous": false,
      "inputs": [
        {
          "indexed": true,
          "name": "author",
          "type": "address"
        },
        {
          "indexed": false,
          "name": "discussionThreadId",
          "type": "uint256"
        },
        {
          "indexed": false,
          "name": "postId",
          "type": "uint256"
        },
        {
          "indexed": false,
          "name": "hiddenAt",
          "type": "uint256"
        }
      ],
      "name": "Hide",
      "type": "event"
    },
    {
      "anonymous": false,
      "inputs": [
        {
          "indexed": false,
          "name": "actionId",
          "type": "uint256"
        },
        {
          "indexed": false,
          "name": "_evmScript",
          "type": "bytes"
        }
      ],
      "name": "CreateDiscussionThread",
      "type": "event"
    },
    {
      "anonymous": false,
      "inputs": [
        {
          "indexed": false,
          "name": "thread",
          "type": "string"
        },
        {
          "indexed": false,
          "name": "metadata",
          "type": "string"
        }
      ],
      "name": "UpdateThread",
      "type": "event"
    },
    {
      "anonymous": false,
      "inputs": [
        {
          "indexed": false,
          "name": "thread",
          "type": "string"
        }
      ],
      "name": "DeleteThread",
      "type": "event"
    },
    {
      "anonymous": false,
      "inputs": [
        {
          "indexed": true,
          "name": "executor",
          "type": "address"
        },
        {
          "indexed": false,
          "name": "script",
          "type": "bytes"
        },
        {
          "indexed": false,
          "name": "input",
          "type": "bytes"
        },
        {
          "indexed": false,
          "name": "returnData",
          "type": "bytes"
        }
      ],
      "name": "ScriptResult",
      "type": "event"
    },
    {
      "anonymous": false,
      "inputs": [
        {
          "indexed": true,
          "name": "vault",
          "type": "address"
        },
        {
          "indexed": true,
          "name": "token",
          "type": "address"
        },
        {
          "indexed": false,
          "name": "amount",
          "type": "uint256"
        }
      ],
      "name": "RecoverToVault",
      "type": "event"
    },
    {
      "constant": false,
      "inputs": [],
      "name": "initialize",
      "outputs": [],
      "payable": false,
      "stateMutability": "nonpayable",
      "type": "function"
    },
    {
      "constant": false,
      "inputs": [
        {
          "name": "postCid",
          "type": "string"
        },
        {
          "name": "discussionThreadId",
          "type": "uint256"
        }
      ],
      "name": "post",
      "outputs": [],
      "payable": false,
      "stateMutability": "nonpayable",
      "type": "function"
    },
    {
      "constant": false,
      "inputs": [
        {
          "name": "postId",
          "type": "uint256"
        },
        {
          "name": "discussionThreadId",
          "type": "uint256"
        }
      ],
      "name": "hide",
      "outputs": [],
      "payable": false,
      "stateMutability": "nonpayable",
      "type": "function"
    },
    {
      "constant": false,
      "inputs": [
        {
          "name": "revisedPostCid",
          "type": "string"
        },
        {
          "name": "postId",
          "type": "uint256"
        },
        {
          "name": "discussionThreadId",
          "type": "uint256"
        }
      ],
      "name": "revise",
      "outputs": [],
      "payable": false,
      "stateMutability": "nonpayable",
      "type": "function"
    },
    {
      "constant": false,
      "inputs": [
        {
          "name": "thread",
          "type": "string"
        },
        {
          "name": "metadata",
          "type": "string"
        }
      ],
      "name": "registerThread",
      "outputs": [],
      "payable": false,
      "stateMutability": "nonpayable",
      "type": "function"
    },
    {
      "constant": false,
      "inputs": [
        {
          "name": "thread",
          "type": "string"
        },
        {
          "name": "newMetadata",
          "type": "string"
        }
      ],
      "name": "editThread",
      "outputs": [],
      "payable": false,
      "stateMutability": "nonpayable",
      "type": "function"
    },
    {
      "constant": false,
      "inputs": [
        {
          "name": "thread",
          "type": "string"
        }
      ],
      "name": "deleteThread",
      "outputs": [],
      "payable": false,
      "stateMutability": "nonpayable",
      "type": "function"
    },
    {
      "constant": true,
      "inputs": [],
      "name": "isForwarder",
      "outputs": [
        {
          "name": "",
          "type": "bool"
        }
      ],
      "payable": false,
      "stateMutability": "pure",
      "type": "function"
    },
    {
      "constant": false,
      "inputs": [
        {
          "name": "_evmScript",
          "type": "bytes"
        }
      ],
      "name": "forward",
      "outputs": [],
      "payable": false,
      "stateMutability": "nonpayable",
      "type": "function"
    },
    {
      "constant": true,
      "inputs": [
        {
          "name": "_sender",
          "type": "address"
        },
        {
          "name": "",
          "type": "bytes"
        }
      ],
      "name": "canForward",
      "outputs": [
        {
          "name": "",
          "type": "bool"
        }
      ],
      "payable": false,
      "stateMutability": "view",
      "type": "function"
    }
  ],
  "bytecode": "0x6080604052620000176401000000006200001d810204565b6200023b565b6200003064010000000062000125810204565b60408051808201909152601881527f494e49545f414c52454144595f494e495449414c495a45440000000000000000602082015290156200010c576040517f08c379a00000000000000000000000000000000000000000000000000000000081526004018080602001828103825283818151815260200191508051906020019080838360005b83811015620000d0578181015183820152602001620000b6565b50505050905090810190601f168015620000fe5780820380516001836020036101000a031916815260200191505b509250505060405180910390fd5b506200012360001964010000000062000154810204565b565b60006200014f6000805160206200279b83398151915264010000000062001a646200023382021704565b905090565b6200016764010000000062000125810204565b60408051808201909152601881527f494e49545f414c52454144595f494e495449414c495a454400000000000000006020820152901562000206576040517f08c379a000000000000000000000000000000000000000000000000000000000815260040180806020018281038252838181518152602001915080519060200190808383600083811015620000d0578181015183820152602001620000b6565b50620002306000805160206200279b83398151915282640100000000620022646200023782021704565b50565b5490565b9055565b612550806200024b6000396000f30060806040526004361061012f5763ffffffff60e060020a6000350416630157f17881146101345780630803fac01461015b5780632914b9bd1461018457806332f0a3b5146101f95780634e6c3c951461020e5780636ff6d66a1461023457806374f5331714610260578063797669c9146102755780637e7db6e11461028a57806380afdea8146102ab5780638129fc1c146102c05780638b3dd749146102d5578063982172c6146102ea5780639d4941d814610311578063a1658fad14610332578063a479e50814610399578063a4a76ef4146103ae578063ab1bb261146103da578063af4be70b146103f5578063c0774df3146104b7578063d4aae0c41461051e578063d79db2e714610533578063d948d46814610553578063de4796ed146105ac578063fd64eccb146105c1575b600080fd5b34801561014057600080fd5b506101496105d6565b60408051918252519081900360200190f35b34801561016757600080fd5b506101706105fb565b604080519115158252519081900360200190f35b34801561019057600080fd5b506040805160206004803580820135601f81018490048402850184019095528484526101dd9436949293602493928401919081908401838280828437509497506106259650505050505050565b60408051600160a060020a039092168252519081900360200190f35b34801561020557600080fd5b506101dd61070b565b34801561021a57600080fd5b50610232602460048035828101929101359035610784565b005b34801561024057600080fd5b506102326024600480358281019290820135918135918201910135610905565b34801561026c57600080fd5b50610149610b76565b34801561028157600080fd5b50610149610b9e565b34801561029657600080fd5b50610170600160a060020a0360043516610bc7565b3480156102b757600080fd5b50610149610bcd565b3480156102cc57600080fd5b50610232610bfd565b3480156102e157600080fd5b50610149610c97565b3480156102f657600080fd5b50610232602460048035828101929101359035604435610cb0565b34801561031d57600080fd5b50610232600160a060020a0360043516610e2d565b34801561033e57600080fd5b506040805160206004604435818101358381028086018501909652808552610170958335600160a060020a03169560248035963696956064959394920192918291850190849080828437509497506110b49650505050505050565b3480156103a557600080fd5b506101dd611204565b3480156103ba57600080fd5b5061023260246004803582810192908201359181359182019101356112a3565b3480156103e657600080fd5b506102326004356024356114b2565b34801561040157600080fd5b506104106004356024356115a9565b60408051600160a060020a0388168152908101859052606081018490526080810183905281151560a082015260c06020808301828152885192840192909252875160e084019189019080838360005b8381101561047757818101518382015260200161045f565b50505050905090810190601f1680156104a45780820380516001836020036101000a031916815260200191505b5097505050505050505060405180910390f35b3480156104c357600080fd5b5060408051602060046024803582810135601f8101859004850286018501909652858552610170958335600160a060020a03169536956044949193909101919081908401838280828437509497506116959650505050505050565b34801561052a57600080fd5b506101dd61169d565b34801561053f57600080fd5b5061023260048035602481019101356116c8565b34801561055f57600080fd5b506040805160206004803580820135601f81018490048402850184019095528484526102329436949293602493928401919081908401838280828437509497506118ca9650505050505050565b3480156105b857600080fd5b50610170611a48565b3480156105cd57600080fd5b50610170611a5b565b6040805160b060020a69454d5054595f524f4c45028152905190819003600a01902081565b600080610606610c97565b9050801580159061061e57508061061b611a60565b10155b91505b5090565b600061062f611204565b600160a060020a03166304bf2a7f836040518263ffffffff1660e060020a0281526004018080602001828103825283818151815260200191508051906020019080838360005b8381101561068d578181015183820152602001610675565b50505050905090810190601f1680156106ba5780820380516001836020036101000a031916815260200191505b5092505050602060405180830381600087803b1580156106d957600080fd5b505af11580156106ed573d6000803e3d6000fd5b505050506040513d602081101561070357600080fd5b505192915050565b600061071561169d565b600160a060020a03166332f0a3b56040518163ffffffff1660e060020a028152600401602060405180830381600087803b15801561075257600080fd5b505af1158015610766573d6000803e3d6000fd5b505050506040513d602081101561077c57600080fd5b505190505b90565b60008054600160a060020a03191633178155806107a3600186866122e7565b5050600280820183905542600483015560058201805460ff191660019081179091556000848152602082815260408220805460038701819055808501808355918452919092208554600783029091018054600160a060020a031916600160a060020a0390921691909117815583860180549295939487949293610839938583019392821615610100026000190190911604612361565b50600282810154908201556003808301549082015560048083015490820155600580830154908201805460ff191660ff90921615159190911790556006808301805461088892840191906123d6565b5050505033600160a060020a03167f08811c5838bf0d8f8f4a7ca61c16aec3c5faad9bcfd62b5d6b587a1e9b0fbedd86868685426040518080602001858152602001848152602001838152602001828103825287878281815260200192508082843760405192018290039850909650505050505050a25050505050565b60408051609860020a6c52454749535445525f524f4c45028152815190819003600d018120600080835260208301909352916109479133918491905b506110b4565b60408051808201909152600f8152608a60020a6e10541417d055551217d190525311510260208201529015156109fe5760405160e560020a62461bcd0281526004018080602001828103825283818151815260200191508051906020019080838360005b838110156109c35781810151838201526020016109ab565b50505050905090810190601f1680156109f05780820380516001836020036101000a031916815260200191505b509250505060405180910390fd5b506002858560405180838380828437909101948552505060408051938490036020908101852054606086018352602586527f596f752063616e6e6f742063726561746520616e206578697374696e672074689186019190915260d960020a643932b0b2170291850191909152600160a060020a0316159150610ac790505760405160e560020a62461bcd028152600401808060200182810382528381815181526020019150805190602001908083836000838110156109c35781810151838201526020016109ab565b50336002868660405180838380828437820191505092505050908152602001604051809103902060006101000a815481600160a060020a030219169083600160a060020a031602179055506000805160206125058339815191528585858560405180806020018060200183810383528787828181526020019250808284379091018481038352858152602001905085858082843760405192018290039850909650505050505050a15050505050565b60408051609860020a6c52454749535445525f524f4c45028152905190819003600d01902081565b60408051609060020a6d4d4f44455241544f525f524f4c45028152905190819003600e01902081565b50600190565b6000610bf87fd625496217aa6a3453eecb9c3489dc5a53e6c67b444329ea2b2cbc9ff547639b611a64565b905090565b610c05610c97565b6040805180820190915260188152604260020a771253925517d053149150511657d2539255125053125691510260208201529015610c885760405160e560020a62461bcd028152600401808060200182810382528381815181526020019150805190602001908083836000838110156109c35781810151838201526020016109ab565b5060008055610c95611a68565b565b6000610bf86000805160206124c5833981519152611a64565b6000818152600160205260408120805484908110610cca57fe5b600091825260209091206007909102018054909150600160a060020a03163314610d56576040805160e560020a62461bcd02815260206004820152602c60248201527f596f752063616e6e6f7420726576697365206120706f737420796f7520646964604482015260a160020a6b103737ba1030baba3437b91702606482015290519081900360840190fd5b6006810180546001818101808455600093845260209093208185018054610d96949290920192909160026101009282161592909202600019011604612361565b50610da790506001820186866122e7565b5033600160a060020a03167f9027e01fa45516b7f5fedf2c5951365e8212a1fc6d9f4fa44f178628c40fab5286868587866004015442604051808060200186815260200185815260200184815260200183815260200182810382528888828181526020019250808284376040519201829003995090975050505050505050a25050505050565b6000806000610e3b84610bc7565b6040805180820190915260128152607260020a71149150d3d5915497d11254d0531313d5d151026020820152901515610eb95760405160e560020a62461bcd028152600401808060200182810382528381815181526020019150805190602001908083836000838110156109c35781810151838201526020016109ab565b50610ec261070b565b9250610ecd83611b1e565b60408051808201909152601a81527f5245434f5645525f5641554c545f4e4f545f434f4e54524143540000000000006020820152901515610f535760405160e560020a62461bcd028152600401808060200182810382528381815181526020019150805190602001908083836000838110156109c35781810151838201526020016109ab565b50600160a060020a0384161515610fa45760405130319250600160a060020a0384169083156108fc029084906000818181858888f19350505050158015610f9e573d6000803e3d6000fd5b50611063565b5082610fbf600160a060020a0382163063ffffffff611b4b16565b9150610fdb600160a060020a038216848463ffffffff611c3516565b60408051808201909152601d81527f5245434f5645525f544f4b454e5f5452414e534645525f4641494c454400000060208201529015156110615760405160e560020a62461bcd028152600401808060200182810382528381815181526020019150805190602001908083836000838110156109c35781810151838201526020016109ab565b505b83600160a060020a031683600160a060020a03167f596caf56044b55fb8c4ca640089bbc2b63cae3e978b851f5745cbb7c5b288e02846040518082815260200191505060405180910390a350505050565b6000806110bf6105fb565b15156110ce57600091506111fc565b6110d661169d565b9050600160a060020a03811615156110f157600091506111fc565b80600160a060020a031663fdef910686308761110c88611c95565b60405160e060020a63ffffffff8716028152600160a060020a03808616600483019081529085166024830152604482018490526080606483019081528351608484015283519192909160a490910190602085019080838360005b8381101561117e578181015183820152602001611166565b50505050905090810190601f1680156111ab5780820380516001836020036101000a031916815260200191505b5095505050505050602060405180830381600087803b1580156111cd57600080fd5b505af11580156111e1573d6000803e3d6000fd5b505050506040513d60208110156111f757600080fd5b505191505b509392505050565b60008061120f61169d565b6040805160e360020a6317c0177b0281527fd6f028ca0e8edb4a8c9757ca4fdccab25fa1e0317da1188108f7d2dee14902fb60048201527fddbcfd564f642ab5627cf68b9b7d374fb4f8a36e941a75d89c87998cef03bd6160248201529051600160a060020a03929092169163be00bbd8916044808201926020929091908290030181600087803b1580156106d957600080fd5b60408051609860020a6c52454749535445525f524f4c45028152815190819003600d018120600080835260208301909352916112e3913391849190610941565b60408051808201909152600f8152608a60020a6e10541417d055551217d1905253115102602082015290151561135e5760405160e560020a62461bcd028152600401808060200182810382528381815181526020019150805190602001908083836000838110156109c35781810151838201526020016109ab565b5033600160a060020a03166002868660405180838380828437820191505092505050908152602001604051809103902060009054906101000a9004600160a060020a0316600160a060020a031614606060405190810160405280602c81526020017f596f752063616e6e6f74206564697420612074687265616420796f7520646964815260200160a160020a6b103737ba1030baba3437b9170281525090151561144d5760405160e560020a62461bcd028152600401808060200182810382528381815181526020019150805190602001908083836000838110156109c35781810151838201526020016109ab565b506000805160206125058339815191528585858560405180806020018060200183810383528787828181526020019250808284379091018481038352858152602001905085858082843760405192018290039850909650505050505050a15050505050565b60008181526001602052604081208054849081106114cc57fe5b600091825260209091206007909102018054909150600160a060020a03163314611556576040805160e560020a62461bcd02815260206004820152602a60248201527f596f752063616e6e6f742068696465206120706f737420796f7520646964206e604482015260b160020a6937ba1030baba3437b91702606482015290519081900360840190fd5b60058101805460ff1916905560408051838152602081018590524281830152905133917f72413a20a4620fb77d92c1e2cdd96f49098fb2be4743bff36f5e7577ca73fbce919081900360600190a2505050565b6001602052816000526040600020818154811015156115c457fe5b600091825260209182902060079091020180546001808301805460408051601f6002600019968516156101000296909601909316949094049182018790048702840187019052808352600160a060020a0390931696509294509283018282801561166f5780601f106116445761010080835404028352916020019161166f565b820191906000526020600020905b81548152906001019060200180831161165257829003601f168201915b505050506002830154600384015460048501546005909501549394919390925060ff1686565b600192915050565b6000610bf87f4172f0f7d2289153072b0a6ca36959e0cbe2efc3afe50fc81636caa96338137b611a64565b60408051609860020a6c52454749535445525f524f4c45028152815190819003600d01812060008083526020830190935291611708913391849190610941565b60408051808201909152600f8152608a60020a6e10541417d055551217d190525311510260208201529015156117835760405160e560020a62461bcd028152600401808060200182810382528381815181526020019150805190602001908083836000838110156109c35781810151838201526020016109ab565b5033600160a060020a03166002848460405180838380828437820191505092505050908152602001604051809103902060009054906101000a9004600160a060020a0316600160a060020a031614606060405190810160405280602e81526020017f596f752063616e6e6f742064656c65746520612074687265616420796f7520648152602001609160020a6d34b2103737ba1030baba3437b917028152509015156118745760405160e560020a62461bcd028152600401808060200182810382528381815181526020019150805190602001908083836000838110156109c35781810151838201526020016109ab565b507ffb7628866c4c6434d6c5ae6cd64c294ab85c2c0557bb63234c4fd69d0002115283836040518080602001828103825284848281815260200192508082843760405192018290039550909350505050a1505050565b6060806118d73384611695565b60408051808201909152601b81527f44495343555353494f4e535f43414e5f4e4f545f464f52574152440000000000602082015290151561195d5760405160e560020a62461bcd028152600401808060200182810382528381815181526020019150805190602001908083836000838110156109c35781810151838201526020016109ab565b506040805160008152600160208083018281526060840185529295509192909190850190803883390190505090507ff5169fef497a692e8b48f03c449c6cd05431f0ac78d9ac940d9f35696e6cc6f5600054846040518083815260200180602001828103825283818151815260200191508051906020019080838360005b838110156119f35781810151838201526020016119db565b50505050905090810190601f168015611a205780820380516001836020036101000a031916815260200191505b50935050505060405180910390a1600080546001019055611a42838383611c9f565b50505050565b6000600019611a55610c97565b14905090565b600190565b4390565b5490565b611a70610c97565b6040805180820190915260188152604260020a771253925517d053149150511657d2539255125053125691510260208201529015611af35760405160e560020a62461bcd028152600401808060200182810382528381815181526020019150805190602001908083836000838110156109c35781810151838201526020016109ab565b50610c95611aff611a60565b6000805160206124c58339815191529063ffffffff61226416565b5490565b600080600160a060020a0383161515611b3a5760009150611b45565b823b90506000811191505b50919050565b60408051600160a060020a038316602480830191909152825180830390910181526044909101909152602081018051600160e060020a031660e060020a6370a08231021790526000908180611ba08684612268565b60408051808201909152601c81527f534146455f4552435f32305f42414c414e43455f52455645525445440000000060208201529193509150821515611c2b5760405160e560020a62461bcd028152600401808060200182810382528381815181526020019150805190602001908083836000838110156109c35781810151838201526020016109ab565b5095945050505050565b60408051600160a060020a03841660248201526044808201849052825180830390910181526064909101909152602081018051600160e060020a031660e060020a63a9059cbb02179052600090611c8c8582612299565b95945050505050565b8051602002815290565b6060600080606080611caf6105fb565b6040805180820190915260148152606260020a731253925517d393d517d253925512505312569151026020820152901515611d2f5760405160e560020a62461bcd028152600401808060200182810382528381815181526020019150805190602001908083836000838110156109c35781810151838201526020016109ab565b50600080611d3b61169d565b9150611d45610bcd565b9050611d508a610625565b60408051808201909152601b81527f45564d52554e5f4558454355544f525f554e415641494c41424c4500000000006020820152909650600160a060020a0387161515611de25760405160e560020a62461bcd028152600401808060200182810382528381815181526020019150805190602001908083836000838110156109c35781810151838201526020016109ab565b506040516060602482019081528b5160848301528b5160e060020a63279cea3502975087928d928d928d9282916044820191606481019160a490910190602089019080838360005b83811015611e42578181015183820152602001611e2a565b50505050905090810190601f168015611e6f5780820380516001836020036101000a031916815260200191505b50848103835286518152865160209182019188019080838360005b83811015611ea2578181015183820152602001611e8a565b50505050905090810190601f168015611ecf5780820380516001836020036101000a031916815260200191505b508481038252855181528551602091820191808801910280838360005b83811015611f04578181015183820152602001611eec565b50505050905001965050505050505060405160208183030381529060405290600160e060020a031916602082018051600160e060020a0383818316178352505050509350600080855160208701895af46040519350808015611fc857603f3d118015611f7d5760203d03806020883e8601604052611fc2565b60e560020a62461bcd02865260206004870152601e60248701527f45564d52554e5f4558454355544f525f494e56414c49445f52455455524e00006044870152606486fd5b50611fd1565b3d6000863e3d85fd5b505085600160a060020a03167f5229a5dba83a54ae8cb5b51bdd6de9474cacbe9dd332f5185f3a4f4f2e3f4ad98b8b8660405180806020018060200180602001848103845287818151815260200191508051906020019080838360005b8381101561204657818101518382015260200161202e565b50505050905090810190601f1680156120735780820380516001836020036101000a031916815260200191505b50848103835286518152865160209182019188019080838360005b838110156120a657818101518382015260200161208e565b50505050905090810190601f1680156120d35780820380516001836020036101000a031916815260200191505b50848103825285518152855160209182019187019080838360005b838110156121065781810151838201526020016120ee565b50505050905090810190601f1680156121335780820380516001836020036101000a031916815260200191505b50965050505050505060405180910390a282965081600160a060020a031661215961169d565b600160a060020a0316146040805190810160405280601f81526020016000805160206124e58339815191528152509015156121d95760405160e560020a62461bcd028152600401808060200182810382528381815181526020019150805190602001908083836000838110156109c35781810151838201526020016109ab565b50806121e3610bcd565b60408051808201909152601f81526000805160206124e5833981519152602082015291146122565760405160e560020a62461bcd028152600401808060200182810382528381815181526020019150805190602001908083836000838110156109c35781810151838201526020016109ab565b505050505050509392505050565b9055565b6000806000806040516020818751602089018a5afa9250600083111561228d57805191505b50909590945092505050565b6000806040516020818551602087016000895af160008111156122dd573d80156122ca57602081146122d3576122db565b600193506122db565b600183511493505b505b5090949350505050565b828054600181600116156101000203166002900490600052602060002090601f016020900481019282601f106123285782800160ff19823516178555612355565b82800160010185558215612355579182015b8281111561235557823582559160200191906001019061233a565b50610621929150612440565b828054600181600116156101000203166002900490600052602060002090601f016020900481019282601f1061239a5780548555612355565b8280016001018555821561235557600052602060002091601f016020900482015b828111156123555782548255916001019190600101906123bb565b8280548282559060005260206000209081019282156124345760005260206000209182015b828111156124345782829080546001816001161561010002031660029004612424929190612361565b50916001019190600101906123fb565b5061062192915061245a565b61078191905b808211156106215760008155600101612446565b61078191905b80821115610621576000612474828261247d565b50600101612460565b50805460018160011615610100020316600290046000825580601f106124a357506124c1565b601f0160209004906000526020600020908101906124c19190612440565b505600ebb05b386a8d34882b8711d156f463690983dc47815980fb82aeeff1aa43579e45564d52554e5f50524f5445435445445f53544154455f4d4f444946494544008e9b41e66961b7414e7e047446a98681abdbefba9deb46b30e3f1590ab24be34a165627a7a723058209f26bcfbc5197b57053be0bdd2e8943baee83d224cc593444901a0ccefe08b710029ebb05b386a8d34882b8711d156f463690983dc47815980fb82aeeff1aa43579e",
  "source": "pragma solidity ^0.4.24;\n\nimport \"@aragon/os/contracts/apps/AragonApp.sol\";\nimport \"@aragon/os/contracts/lib/math/SafeMath.sol\";\nimport \"@aragon/os/contracts/common/IForwarder.sol\";\n\n\ncontract DiscussionApp is IForwarder, AragonApp {\n    using SafeMath for uint256;\n\n    event Post(address indexed author, string postCid, uint256 discussionThreadId, uint256 postId, uint256 createdAt);\n    event Revise(\n        address indexed author,\n        string revisedPostCid,\n        uint256 discussionThreadId,\n        uint256 postId,\n        uint256 createdAt,\n        uint256 revisedAt\n    );\n    event Hide(address indexed author, uint256 discussionThreadId, uint256 postId, uint256 hiddenAt);\n    event CreateDiscussionThread(uint256 actionId, bytes _evmScript);\n    event UpdateThread(string thread, string metadata);\n    event DeleteThread(string thread);\n\n    bytes32 public constant EMPTY_ROLE = keccak256(\"EMPTY_ROLE\");\n    bytes32 public constant REGISTER_ROLE = keccak256(\"REGISTER_ROLE\");\n    bytes32 public constant MODERATOR_ROLE = keccak256(\"MODERATOR_ROLE\");\n\n    string private constant ERROR_CAN_NOT_FORWARD = \"DISCUSSIONS_CAN_NOT_FORWARD\";\n    string private constant ERROR_ALREADY_EXISTS = \"You cannot create an existing thread.\";\n    string private constant ERROR_EDIT_NOT_AUTHOR = \"You cannot edit a thread you did not author.\";\n    string private constant ERROR_DELETE_NOT_AUTHOR = \"You cannot delete a thread you did not author.\";\n\n    struct DiscussionPost {\n        address author;\n        string postCid;\n        uint256 discussionThreadId;\n        uint256 id;\n        uint256 createdAt;\n        bool show;\n        string[] revisionCids;\n    }\n\n    uint256 discussionThreadId;\n\n    mapping(uint256 => DiscussionPost[]) public discussionThreadPosts;\n\n    mapping(string => address) private threadAuthors;\n\n    function initialize() external onlyInit {\n        discussionThreadId = 0;\n        initialized();\n    }\n\n    /**\n     * @notice Create discussion post with an IPFS content hash '`postCid`'.\n     * @param postCid The IPFS content hash of the discussion post data\n     * @param discussionThreadId The thread to post this discussion to\n     */\n    function post(string postCid, uint256 discussionThreadId) external {\n        DiscussionPost storage post;\n        post.author = msg.sender;\n        post.postCid = postCid;\n        post.discussionThreadId = discussionThreadId;\n        post.createdAt = now; // solium-disable-line security/no-block-members\n        post.show = true;\n        uint256 postId = discussionThreadPosts[discussionThreadId].length;\n        post.id = postId;\n        discussionThreadPosts[discussionThreadId].push(post);\n        emit Post(msg.sender, postCid, discussionThreadId, postId, now); // solium-disable-line security/no-block-members\n    }\n\n    /**\n     * @notice Hide a discussion post with ID '`postId`'.\n     * @param postId The postId to hide\n     * @param discussionThreadId The thread to hide this discussion from\n     */\n    function hide(uint256 postId, uint256 discussionThreadId) external {\n        DiscussionPost storage post = discussionThreadPosts[discussionThreadId][postId];\n        require(post.author == msg.sender, \"You cannot hide a post you did not author.\");\n        post.show = false;\n        emit Hide(msg.sender, discussionThreadId, postId, now); // solium-disable-line security/no-block-members\n    }\n\n    /**\n     * @notice Revise a discussion post with ID '`postId`'.\n     * @param revisedPostCid The cid of the pre-revised post\n     * @param postId The postId to revise\n     * @param discussionThreadId The thread to hide this discussion from\n     */\n    function revise(string revisedPostCid, uint256 postId, uint256 discussionThreadId) external {\n        DiscussionPost storage post = discussionThreadPosts[discussionThreadId][postId];\n        require(post.author == msg.sender, \"You cannot revise a post you did not author.\");\n        // add the current post to the revision history\n        // should we limit the number of revisions you can make to save storage?\n        post.revisionCids.push(post.postCid);\n        post.postCid = revisedPostCid;\n        emit Revise(\n            msg.sender,\n            revisedPostCid,\n            discussionThreadId,\n            postId,\n            post.createdAt,\n            now // solium-disable-line security/no-block-members\n        );\n    }\n\n    /**\n     * @notice Create new thread at `thread`\n     * @param thread The address of the 3Box thread\n     * @param metadata The IPFS hash of the metadata for the thread\n    */\n    function registerThread(string thread, string metadata)\n        auth(REGISTER_ROLE) external {\n        require(threadAuthors[thread] == 0, ERROR_ALREADY_EXISTS);\n        threadAuthors[thread] = msg.sender;\n        emit UpdateThread(thread, metadata);\n    }\n\n    /**\n     * @notice Edit thread at `thread`\n     * @param thread The address of the 3Box thread\n     * @param newMetadata The IPFS hash of the new metadata for the thread\n     */\n    function editThread(string thread, string newMetadata)\n        auth(REGISTER_ROLE) external {\n        require(threadAuthors[thread] == msg.sender, ERROR_EDIT_NOT_AUTHOR);\n        emit UpdateThread(thread, newMetadata);\n    }\n\n    /**\n     * @notice Delete thread at `thread`\n     * @param thread The address of the 3Box thread\n     */\n    function deleteThread(string thread) auth(REGISTER_ROLE) external {\n        require(threadAuthors[thread] == msg.sender, ERROR_DELETE_NOT_AUTHOR);\n        emit DeleteThread(thread);\n    }\n\n    // Forwarding fns\n\n    /**\n    * @notice Tells whether the Discussion app is a forwarder or not\n    * @dev IForwarder interface conformance\n    * @return Always true\n    */\n    function isForwarder() external pure returns (bool) {\n        return true;\n    }\n\n    /**\n    * @notice Creates a discussion thread around the desired action\n    * @dev IForwarder interface conformance\n    * @param _evmScript Start vote with script\n    */\n    function forward(bytes _evmScript) public {\n        require(canForward(msg.sender, _evmScript), ERROR_CAN_NOT_FORWARD);\n        bytes memory input = new bytes(0); // TODO: Consider input for this\n        address[] memory blacklist = new address[](1);\n        emit CreateDiscussionThread(discussionThreadId, _evmScript);\n        discussionThreadId = discussionThreadId + 1;\n        runScript(_evmScript, input, blacklist);\n    }\n\n    /**\n    * @notice Tells whether `_sender` can forward actions or not\n    * @dev IForwarder interface conformance\n    * @param _sender Address of the account intending to forward an action\n    * @return True (eventually we should return if the given address can create a discussion thread, false otherwise)\n    */\n    function canForward(address _sender, bytes) public view returns (bool) {\n        return true;\n    }\n}\n",
  "sourcePath": "/Users/otto/box/git/open-enterprise/apps/discussions/contracts/DiscussionApp.sol",
  "compiler": {
    "name": "solc",
    "version": "0.4.24+commit.e67f0147.Emscripten.clang"
  },
  "schemaVersion": "2.0.1",
  "updatedAt": "2020-04-23T15:53:01.851Z"
}